:100000000C9463000C948B000C948B000C942C05C6
:100010000C942C050C942C050C948B000C948B00E8
:100020000C948B000C948B000C948B000C948B0024
:100030000C948B000C948B000C948B000C948B0014
:100040000C948A040C948B000C94FA040C94D40441
:100050000C948B000C948B000C948B000C948B00F4
:100060000C948B000C948B0000000008000201002F
:100070000003040700000000000000000000000072
:1000800023002600290000000000240027002A0089
:1000900000000000250028002B00040404040404D0
:1000A0000404020202020202030303030303010227
:1000B00004081020408001020408102001020408F6
:1000C0001020F005430C11241FBECFEFD8E0DEBF97
:1000D000CDBF11E0A0E0B1E0E0EDFEE102C005908F
:1000E0000D92AC35B107D9F723E0ACE5B1E001C022
:1000F0001D92AA31B207E1F710E0C2E6D0E004C0D9
:100100002197FE010E94CD0CC136D107C9F70E948C
:10011000AC070C945B0F0C9400002FB7F89460911F
:10012000A5017091A6018091A7019091A8012FBF10
:100130000895AF92BF92CF92DF92EF92FF920F930A
:100140001F93CF93DF936C017B018B01040F151F6D
:10015000EB015E01AE18BF08C017D10759F06991D5
:10016000D601ED91FC910190F081E02DC601099539
:10017000892B79F7C501DF91CF911F910F91FF90E6
:10018000EF90DF90CF90BF90AF900895FC01538D1A
:10019000448D252F30E0842F90E0821B930B541761
:1001A00010F0CF96089501970895FC01918D828DEE
:1001B000981761F0A28DAE0FBF2FB11D5D968C9187
:1001C000928D9F5F9F73928F90E008958FEF9FEFC6
:1001D0000895FC01918D828D981731F0828DE80F82
:1001E000F11D858D90E008958FEF9FEF0895FC013C
:1001F000918D228D892F90E0805C9F4F821B910909
:100200008F739927089589EA91E00E94F70021E011
:10021000892B09F420E0822F089580E090E0892B5B
:1002200029F00E94030181110C9400000895FC0143
:10023000A48DA80FB92FB11DA35ABF4F2C91848D47
:1002400090E001968F739927848FA689B7892C93A4
:10025000A089B1898C91837080648C93938D848DF7
:10026000981306C00288F389E02D80818F7D8083FA
:100270000895EF92FF920F931F93CF93DF93EC01BA
:1002800081E0888F9B8D8C8D98131AC0E889F9893D
:10029000808185FF15C09FB7F894EE89FF89608340
:1002A000E889F98980818370806480839FBF81E0C1
:1002B00090E0DF91CF911F910F91FF90EF90089503
:1002C000F62E0B8D10E00F5F1F4F0F731127E02EDE
:1002D0008C8D8E110CC00FB607FCFACFE889F98916
:1002E000808185FFF5CFCE010E941701F1CFEB8D04
:1002F000EC0FFD2FF11DE35AFF4FF0829FB7F894EA
:100300000B8FEA89FB8980818062CFCFCF93DF9307
:10031000EC01888D8823B9F0AA89BB89E889F9891D
:100320008C9185FD03C0808186FD0DC00FB607FC52
:10033000F7CF8C9185FFF2CF808185FFEDCFCE0185
:100340000E941701E9CFDF91CF91089520919E017E
:1003500030919F012817390771F490919C01809189
:100360009D01981741F0E0919C01F0E0E45AFE4FA6
:10037000808190E008958FEF9FEF08950895EF92A8
:10038000FF920F931F93CF93DF93DC015C96ED9068
:10039000FC905D97E114F10479F481E090E013960C
:1003A0009C938E93129790E080E0DF91CF911F9104
:1003B0000F91FF90EF9008955196ED91FC91529717
:1003C00050968C915097982F90950FB75E962C91E0
:1003D0005E97122F127021FD6095F89420811123F1
:1003E00019F1282B2083E7012197F1F728E0462F08
:1003F00050E0308160FF1AC0382B3083E70121972D
:10040000F1F7BA0175956795215089F7112381F0AD
:100410008081892380830FBF5C968D919C91019789
:10042000F1F781E090E0C1CF2923DCCF3923E5CF7C
:100430009081892BEFCF20919E0130919F01281749
:10044000390761F480919D0120919C0190E0805CCE
:100450009F4F821B91098F739927089590E080E048
:10046000089520919E0130919F0128173907B9F412
:1004700090919C0180919D01981789F0E0919C01D9
:10048000F0E0E45AFE4F808120919C0130E02F5F24
:100490003F4F2F73332720939C0190E008958FEFF7
:1004A0009FEF089590E080E00895CF93DF93EC01F3
:1004B0008A859B85AC85BD858E839F83A887B987F8
:1004C0000E948D006A837B838C839D8381E0898376
:1004D0008883DF91CF910895CF93DF93EC018E81D4
:1004E0009F81A885B9858A839B83AC83BD830E9445
:1004F0008D006A877B878C879D8781E089838883CD
:10050000DF91CF910895FC0101900020E9F7319728
:10051000AF01481B590BBC0189EA91E00C9499008A
:100520008F929F92AF92BF920F931F93CF93DF93BF
:10053000CDB7DEB7A1970FB6F894DEBF0FBECDBF23
:1005400019A2423008F44AE08E010F5D1F4F842E3D
:10055000912CB12CA12CA50194010E94AB0CE62F8B
:10056000B901CA01EA30F4F4E05DD801EE938D01DF
:10057000232B242B252B79F790E080E0109719F09E
:10058000CD010E948302A1960FB6F894DEBF0FBE84
:10059000CDBFDF91CF911F910F91BF90AF909F90F2
:1005A0008F900895E95CE1CF4F925F926F927F92B6
:1005B0008F929F92AF92BF92CF92DF92EF92FF9273
:1005C0000F931F93CF936B017C01742EAC019B01A1
:1005D0000E942C0F882399F084E291E0CF911F9123
:1005E0000F91FF90EF90DF90CF90BF90AF909F90D2
:1005F0008F907F906F905F904F900C948302460194
:100600005701E894B7F82FEF3FEF4FE75FE7C501D9
:10061000B4010E942C0F81110DC02FEF3FEF4FE767
:100620005FE7C501B4010E94620D18161CF488E250
:1006300091E0D4CF2FEF3FEF4FE75FE4C701B60162
:100640000E94BA0E18161CF48CE291E0C7CF2FEF6F
:100650003FEF4FE75FECC701B6010E94620D87FDD7
:10066000F3CF20E030E0A901C701B6010E94620D7E
:1006700010E000E087FF0AC06DE289EA91E00E9485
:1006800039018C01F7FAF094F7F8F094C0E060E0DB
:1006900070E080E09FE37C1641F020E030E040E233
:1006A00051E40E94670DCF5FF6CFA70196010E942B
:1006B000F60C2B013C010E94D90D4B015C014AE074
:1006C0000E9490027C01E00EF11ECC23C1F1C50115
:1006D000B4010E94080E9B01AC01C301B2010E944B
:1006E000F50C4B015C016EE289EA91E00E94390150
:1006F000E80EF91EC15018F120E030E040E251E46C
:10070000C501B4010E94BF0E2B013C010E94D90D0E
:100710004B01B12CA12C4AE0C501B4010E9490020A
:10072000E80EF91EC501B4010E94080E9B01AC0140
:10073000C301B2010E94F50C4B015C01DBCFC70184
:10074000CF911F910F91FF90EF90DF90CF90BF90CE
:10075000AF909F908F907F906F905F904F90089593
:100760002F923F924F925F926F927F928F929F92C1
:10077000AF92BF92CF92DF92EF92FF920F931F93AF
:10078000CF93DF93D82FC92F8B010E945F0C24E6F3
:1007900030E040E050E00E94AB0C49019B01AC010D
:1007A00060E876E988E990E00E949B0C6B017C018F
:1007B000F80191828082ED2FFC2F2191822F022E51
:1007C000000C990BC0970A97C0F32E3239F51F0120
:1007D00080E8882E86E9982E88E9A82EB12C9AE028
:1007E000492E512C612C712CF101C1911F010C2E4D
:1007F000000CDD0BE097CA30D10580F4C501B401CF
:10080000A30192010E94AB0C49015A01DE010E9432
:10081000DE0CC60ED71EE81EF91EE6CFA5E0B0E03E
:10082000A70196010E94D30C6F5F7F4F8F4F9F4FA0
:1008300023E030E040E050E00E94AB0CF80122835E
:100840003383448355831682DF91CF911F910F919B
:10085000FF90EF90DF90CF90BF90AF909F908F90E0
:100860007F906F905F904F903F902F9008951F93CF
:10087000CF93DF93EC0118811D3209F42196CE014C
:100880000E945F0C9B01AC01A4E6B0E00E94D30C77
:10089000AB01BC01FE012991822F022E000C990BA5
:1008A000C0970A97B8F32E3231F58181082E000CDB
:1008B000990BC0978A309105F0F4AAE0A89F9001A7
:1008C000A99F300D1124C901330FAA0BBB0B480F90
:1008D000591F6A1F7B1F8281082E000C990BC0973D
:1008E0008A30910540F4092E000CAA0BBB0B480F6F
:1008F000591F6A1F7B1F1D3239F470956095509502
:1009000041955F4F6F4F7F4FCB01BA01DF91CF9180
:100910001F9108951F920F920FB60F9211242F93DB
:100920003F938F939F93AF93BF938091A501909135
:10093000A601A091A701B091A8013091A40123E0E4
:10094000230F2D3758F50196A11DB11D2093A40149
:100950008093A5019093A601A093A701B093A8014D
:100960008091A0019091A101A091A201B091A30159
:100970000196A11DB11D8093A0019093A101A093A8
:10098000A201B093A301BF91AF919F918F913F912D
:100990002F910F900FBE0F901F90189526E8230FF0
:1009A0000296A11DB11DD2CF1F920F920FB60F92CA
:1009B00011242F933F934F935F936F937F938F9364
:1009C0009F93AF93BF93EF93FF9389EA91E00E94C7
:1009D0001701FF91EF91BF91AF919F918F917F91FF
:1009E0006F915F914F913F912F910F900FBE0F909C
:1009F0001F9018951F920F920FB60F9211242F93EC
:100A00008F939F93EF93FF93E091B901F091BA0117
:100A10008081E091BF01F091C00182FD1BC09081F7
:100A20008091C2018F5F8F732091C301821741F0C3
:100A3000E091C201F0E0E755FE4F958F8093C2012F
:100A4000FF91EF919F918F912F910F900FBE0F907B
:100A50001F9018958081F4CF1F920F920FB60F92BE
:100A600011242F933F934F935F936F937F938F93B3
:100A70009F93AF93BF93EF93FF93E0919E01F0910B
:100A80009F01309749F0A685B7858585968D91FFA2
:100A900014C09C918923A1F4FF91EF91BF91AF9174
:100AA0009F918F917F916F915F914F913F912F9186
:100AB0000F900FBE0F901F9018959C91892361F79E
:100AC000A389B4899C918589809589238C93868993
:100AD00097890197F1F7608D718DA685B78555854A
:100AE00038E020E0CB010197F1F7822F90E0959557
:100AF0008795282F4C91452309F02068315091F7B4
:100B0000868D81FD209580919D0190E001968F73E7
:100B1000992730919C01381799F0A0919D01B0E080
:100B2000A45ABE4F2C9380939D01828D938D019783
:100B3000F1F7A389B4898C919589892B8C93ACCFDB
:100B4000868D8160868FF1CF90E0FC01E859FF4FE0
:100B50002491FC01E255FF4F3491FC01E656FF4F12
:100B6000E491EE23C9F0222339F0233001F1A8F4F7
:100B7000213019F1223029F1F0E0EE0FFF1FE0578C
:100B8000FF4FA591B4918FB7F894EC91611126C0F5
:100B900030953E233C938FBF08952730A9F028302D
:100BA000C9F0243049F7809180008F7D03C0809187
:100BB00080008F7780938000DFCF84B58F7784BDEE
:100BC000DBCF84B58F7DFBCF8091B0008F77809392
:100BD000B000D2CF8091B0008F7DF9CF3E2BDACF1D
:100BE0000F931F93CF93DF931092AC011092AB0140
:100BF00088EE93E0A0E0B0E08093AD019093AE0169
:100C0000A093AF01B093B00124E031E03093AA018A
:100C10002093A90125EC30E03093B6012093B50173
:100C200024EC30E03093B8012093B70120EC30E0A1
:100C30003093BA012093B90121EC30E03093BC012C
:100C40002093BB0122EC30E03093BE012093BD0124
:100C500026EC30E03093C0012093BF011092C20116
:100C60001092C3011092C4011092C5011092650246
:100C70001092660210926802109267021092690246
:100C800010926A0210926B0210926C0210926D0226
:100C900010926F0210926E02109270021092710206
:100CA00010927202109273021092740210927602E5
:100CB00010927502109277021092780210927902C7
:100CC00010927A0210927B0210927D0210927C02A6
:100CD00010927E0210927F02109280021092810286
:100CE0001092820220E330E030938402209383024A
:100CF0002EE430E0309388022093870210928F0216
:100D0000109290021092910210929202109293020D
:100D10001092940210929D0210929E0210929F02D5
:100D20001092A0021092A1021092A2021092AB02A5
:100D30001092AC021092B1021092B2021092B30261
:100D40001092B4021092B9021092BA021092BF022D
:100D50001092C0021092C1021092C2021092C702F9
:100D60001092C8021092CD021092CE021092CF02C1
:100D70001092D0021092D5021092D6021092DB028D
:100D80001092DC021092DD021092DE021092E30259
:100D90001092E4021092E9021092EA021092EB0221
:100DA0001092EC021092F1021092F20222E02093D3
:100DB0000203109203031092040310920503109291
:100DC0000703109206031092090310920803109271
:100DD0000A0310920B0310920C0310920D03109251
:100DE0000E0310920F031092100310921103109231
:100DF0001203109213031092140310921503109211
:100E000016031092170310921803109219031092F0
:100E1000F302109249021092480280934A02909382
:100E20004B02A0934C02B0934D0286E191E0909367
:100E300047028093460210925D0210925C0210926B
:100E40005F0210925E021092610210926002109294
:100E5000630210926202609164026E7F6D7F609304
:100E600064026695617081E068278BE00E94A405AA
:100E700049EB50E0FA01649185EA90E0FC0124918D
:100E8000222399F030E0220F331FF901EA57FF4F78
:100E9000A591B491F901E057FF4F259134912FB7F7
:100EA000F8943C91632B6C932FBFFA0144914093CB
:100EB0005602FC018491E82FF0E0EE0FFF1FE0578F
:100EC000FF4F85919491909358028093570208EBBD
:100ED00010E0F8012491C4EAD0E0FE018491882357
:100EE000C9F090E0880F991FFC01EA57FF4FA591C8
:100EF000B491FC01E057FF4F459154913FB7F894EE
:100F00009C91822F809598239C93FA01908189234C
:100F100080833FBF8091640281FD04C061E08AE06C
:100F20000E94A4058AE080935202F8010491009384
:100F30005302FE01C491EC2FF0E0EE0FFF1FE458C6
:100F4000FF4F859194919093550280935402DF91C5
:100F5000CF911F910F910895789484B5826084BDDC
:100F600084B5816084BD85B5826085BD85B58160AD
:100F700085BD80916E00816080936E00109281002B
:100F800080918100826080938100809181008160E6
:100F900080938100809180008160809380008091A7
:100FA000B10084608093B1008091B0008160809333
:100FB000B00080917A00846080937A0080917A00FA
:100FC000826080937A0080917A00816080937A00B9
:100FD00080917A00806880937A001092C100E0913D
:100FE000B901F091BA0182E08083E091B501F091FE
:100FF000B6011082E091B701F091B8018FEC8083C7
:101000001092C101E091BD01F091BE0186E08083A4
:10101000E091BB01F091BC01808180618083E0910F
:10102000BB01F091BC01808188608083E091BB01AD
:10103000F091BC01808180688083E091BB01F091D8
:10104000BC0180818F7D80831092610210926002CA
:1010500010925F0210925E0210925D0210925C028A
:101060008DE991E090936302809362029091520225
:10107000963108F047C02DEB30E030935D022093AD
:101080005C022BE931E030935F0220935E022CE298
:1010900031E030936102209360022091680084E087
:1010A000983048F031E09E3008F430E081E001C033
:1010B000880F3A95EAF7822B809368002DE630E09E
:1010C000983050F02BE630E09E3030F02CE630E0E7
:1010D000963110F030E020E030935A02209359020C
:1010E000292F30E0983008F039C181E001C0880F25
:1010F0009A95EAF780935B02809162029091630275
:101100000197F1F78091600290916102892B49F17A
:10111000E0919E01F0919F0122E0E634F20709F18F
:10112000309739F0A389B4899C918589809589236A
:101130008C93809164028E7F8093640210929D0153
:1011400010929C0186E492E090939F0180939E010F
:10115000E0915902F0915A02808190915B02892BB3
:101160008083FF24F39480E0682E80E0782E92E064
:10117000E92E01E086E492E00E941B02181619068F
:101180000CF0FEC286E492E00E943102182F80919A
:101190000A0390910B03A0910C03B0910D030196EB
:1011A000A11DB11D80930A0390930B03A0930C0320
:1011B000B0930D03143209F4C2C2E0910403153256
:1011C0000CF0D9C01A3019F01D3009F0C5C2EF304B
:1011D00008F05EC1F0E0ED50FD4F10828091F20208
:1011E000882309F463C12091F302822F022E000CA0
:1011F000990B3FEB320F363008F0C9C0C797829584
:10120000807F9091F402292F092E000C330B4FEBB5
:10121000490F463008F0C3C027533109820F90911F
:10122000F102891322C18091160390911703A091B6
:101230001803B09119030196A11DB11D80931603E7
:1012400090931703A0931803B0931903809105039B
:10125000882399F080910E0390910F03A0911003C1
:10126000B09111030196A11DB11D80930E039093BF
:101270000F03A0931003B0931103C0910203CC237A
:1012800009F496C0C13009F044C08FE892E00E9492
:101290006C028DE992E00E946C0280910503882324
:1012A000C1F187E0E5E7F2E0A7E6B2E001900D9238
:1012B0008A95E1F787E0ECE7F2E0AEE6B2E0019074
:1012C0000D928A95E1F78091850290918602909324
:1012D0008402809383028091890290918A02909384
:1012E0008802809387020E948D0060938B02709326
:1012F0008C0280938D0290938E02C0936602C093FD
:1013000065028BEA92E00E94550289EB92E00E940E
:101310005502C0910803D0910903209709F4B8C081
:10132000E0910803F091090366A177A18EA19FA126
:101330000E943C0F892B09F0ABC0BE01CE01409644
:101340000E94450F0E948D0068A379A38AA39BA3E6
:10135000FDA2FCA20AA4DBA5C02DDFCF9E3040F485
:101360002850310981E001C0880F2A95EAF7C2CEE2
:101370002E503109F7CF1A3209F429CF1C3209F067
:10138000EBC18091F10281278093F10220CF215699
:10139000263018F48755910932CFC09730CF915637
:1013A000963018F42755310939CF2053310936CFFB
:1013B0008DE992E00E946C02809105038823A1F1DF
:1013C00087E0E5E7F2E0A7E6B2E001900D928A95AA
:1013D000E1F787E0ECE7F2E0AEE6B2E001900D92D3
:1013E0008A95E1F78091850290918602909384021C
:1013F000809383028091890290918A02909388025F
:10140000809387020E948D0060938B0270938C0200
:1014100080938D0290938E02009366020093650282
:1014200087EC92E00E9455028091DF029091E002E9
:10143000A091E102B091E2028093DB029093DC0282
:10144000A093DD02B093DE020E948D006093D7026C
:101450007093D8028093D9029093DA020093D60257
:101460000093D50283EE92E052CF809112039091C7
:101470001303A0911403B09115030196A11DB11D92
:101480008093120390931303A0931403B093150356
:10149000809103038F5F809303031092040381E024
:1014A0001A3209F080E08093F20264CE9091030337
:1014B000911143C08091F3028734E1F56091F40209
:1014C000062E000C770B80E391E00E94310F892BF0
:1014D00089F166E371E085EF92E00E943C0F892B71
:1014E000F1F4009302038091060390910703909317
:1014F000090380930803C0900803D0900903C11426
:10150000D10431F263EF72E0F60186A197A10E9447
:101510003C0F97FFB0C1F60182A593A5E8CF6AE31F
:1015200071E085EF92E00E943C0F892B19F4109234
:101530000203D9CFE0920203D6CFE0910203E2305A
:1015400009F44BC08091F302882309F446C020E2DD
:10155000E29FF0011124E92B3197EC32F10508F0FC
:101560003CC0EB54F54F0C94CD0CE10A230B2A0B35
:10157000310B340B620B700B7D0B8A0BED0AED0AFD
:10158000ED0AED0AED0AED0AED0AED0AED0AED0AA3
:10159000ED0AED0AED0AED0AED0AED0AED0AED0A93
:1015A000ED0AED0AED0AED0AED0AE10A1C0B230B28
:1015B0002A0B310B340B3B0B480B550BED0AED0A94
:1015C000970B83EF92E00E9437046093A30270931D
:1015D000A4028093A5029093A602C0900803D09025
:1015E0000903B0900303C114D10409F451CFE09171
:1015F0000803F091090366A177A1F60186A197A1DE
:101600000E943C0F892B09F043CFF60120A531A59C
:101610008B2D90E0821793070CF43ACF28173907E7
:1016200039F44FE050E063EF72E0C6010E944C0FC6
:10163000F601C2A4D3A4D5CF91E0813409F090E0A3
:1016400090930503CACF65E772E083EF92E00E94B2
:10165000B003C3CF91E0833509F090E090937B0213
:10166000BCCF6CE772E0F1CF91E0873509F090E0F4
:1016700090938202B2CF83EF92E00E94370460938E
:10168000B5027093B6028093B7029093B802A5CFCB
:1016900083EF92E00E9437046093C3027093C40208
:1016A0008093C5029093C60298CF83EF92E00E9488
:1016B0005F0C6093950270939602809397029093CB
:1016C00098028BCF91E081330CF490E09093050366
:1016D000082E000C990B90938602809385027DCF93
:1016E00083EF92E00E945F0C6093DF027093E00250
:1016F0008093E1029093E20270CF83EF92E00E9428
:1017000037046093ED027093EE028093EF029093A2
:10171000F00263CF83EF92E00E9437046093D1021E
:101720007093D2028093D3029093D40256CF082EA6
:10173000000C990B90938A02809389024ECF1092ED
:101740000403109203031092F102E092020310923C
:10175000F202109205030ECDEE3040F481E08E0FC0
:1017600080930403F0E0ED50FD4F10838091F2026E
:10177000811100CD8091F10218271093F102FACC6B
:1017800080916602882309F46AC08EE391E00E948A
:101790008302109266026091690270916A028091E0
:1017A0006B0290916C020E94080E28E23BE64EE626
:1017B0005EE40E94670D4B015C01609167027091CD
:1017C000680290E080E00E94080E9B01AC01C50118
:1017D000B4010E94F60C20916D022111905846E050
:1017E0000E94D40289E491E00E9483028CE491E09B
:1017F0000E948302109266026091700270917102E1
:1018000080917202909173020E94080E28E23BE6DA
:101810004EE65EE40E94670D4B015C0160916E0232
:1018200070916F0290E080E00E94080E9B01AC0175
:10183000C501B4010E94F60C209174022111905848
:1018400046E00E94D40289E491E00E94830288E588
:1018500091E00E94830289E491E00E948302611476
:10186000710409F487CC0E940301882309F482CC17
:101870000E9400007FCC892B09F40ACE1092090344
:101880001092080305CE86E191E090934702809381
:10189000460280919E0190919F018654924071F47E
:1018A000E0915902F0915A02908180915B028095FB
:1018B0008923808310929F0110929E0108951F93A7
:1018C000FC0199278827BC01E89411911032E9F3B3
:1018D000193010F01E30C8F31B3251F01D3249F49C
:1018E000689406C00E94860C610F711D811D911DB8
:1018F000119110531A30B0F33EF490958095709585
:1019000061957F4F8F4F9F4F1F910895592F482FFB
:10191000372F262F660F771F881F991F660F771F97
:10192000881F991F620F731F841F951F660F771FF3
:10193000881F991F0895DB018F939F930E94D30CFA
:10194000BF91AF91A29F800D911DA39F900DB29F5B
:10195000900D11240895A1E21A2EAA1BBB1BFD01B4
:101960000DC0AA1FBB1FEE1FFF1FA217B307E4077E
:10197000F50720F0A21BB30BE40BF50B661F771FD6
:10198000881F991F1A9469F76095709580959095B6
:101990009B01AC01BD01CF010895EE0FFF1F059023
:1019A000F491E02D09940E94E60CA59F900DB49F40
:1019B000900DA49F800D911D11240895B7FF0C94E4
:1019C000D30C0E94D30C821B930B0895A29FB001ED
:1019D000B39FC001A39F700D811D1124911DB29F63
:1019E000700D811D1124911D08955058BB27AA2701
:1019F0000E940D0D0C94800E0E94720E38F00E9411
:101A0000790E20F039F49F3F19F426F40C946F0EF0
:101A10000EF4E095E7FB0C94690EE92F0E94910EFD
:101A200058F3BA17620773078407950720F079F413
:101A3000A6F50C94B30E0EF4E0950B2EBA2FA02D44
:101A40000B01B90190010C01CA01A0011124FF276B
:101A5000591B99F0593F50F4503E68F11A16F04066
:101A6000A22F232F342F4427585FF3CF4695379565
:101A70002795A795F0405395C9F77EF41F16BA0B2A
:101A8000620B730B840BBAF09150A1F0FF0FBB1FD8
:101A9000661F771F881FC2F70EC0BA0F621F731F21
:101AA000841F48F4879577956795B795F7959E3F7E
:101AB00008F0B0CF9395880F08F09927EE0F97950F
:101AC000879508950E94450E08F481E008950E94CC
:101AD0007B0D0C94800E0E94790E58F00E94720EBD
:101AE00040F029F45F3F29F00C94690E51110C94D9
:101AF000B40E0C946F0E0E94910E68F39923B1F30B
:101B0000552391F3951B550BBB27AA276217730723
:101B1000840738F09F5F5F4F220F331F441FAA1FB7
:101B2000A9F335D00E2E3AF0E0E832D09150504073
:101B3000E695001CCAF72BD0FE2F29D0660F771F21
:101B4000881FBB1F261737074807AB07B0E809F007
:101B5000BB0B802DBF01FF2793585F4F3AF09E3F8C
:101B6000510578F00C94690E0C94B40E5F3FE4F3C9
:101B7000983ED4F3869577956795B795F7959F5FCF
:101B8000C9F7880F911D9695879597F90895E1E01B
:101B9000660F771F881FBB1F621773078407BA077A
:101BA00020F0621B730B840BBA0BEE1F88F7E095D5
:101BB00008950E94990E88F09F5798F0B92F9927A1
:101BC000B751B0F0E1F0660F771F881F991F1AF028
:101BD000BA95C9F714C0B13091F00E94B30EB1E0CC
:101BE00008950C94B30E672F782F8827B85F39F0CB
:101BF000B93FCCF3869577956795B395D9F73EF4C1
:101C000090958095709561957F4F8F4F9F4F089568
:101C1000E89409C097FB3EF4909580957095619586
:101C20007F4F8F4F9F4F9923A9F0F92F96E9BB273C
:101C30009395F695879577956795B795F111F8CFB8
:101C4000FAF4BB0F11F460FF1BC06F5F7F4F8F4F23
:101C50009F4F16C0882311F096E911C0772321F019
:101C60009EE8872F762F05C0662371F096E8862FB1
:101C700070E060E02AF09A95660F771F881FDAF708
:101C8000880F9695879597F90895990F0008550F35
:101C9000AA0BE0E8FEEF16161706E807F907C0F0F2
:101CA00012161306E407F50798F0621B730B840BFA
:101CB000950B39F40A2661F0232B242B252B21F4D4
:101CC00008950A2609F4A140A6958FEF811D811D74
:101CD000089597F99F6780E870E060E008959FEFAE
:101CE00080EC089500240A941616170618060906B3
:101CF000089500240A941216130614060506089582
:101D0000092E0394000C11F4882352F0BB0F40F409
:101D1000BF2B11F460FF04C06F5F7F4F8F4F9F4F49
:101D2000089557FD9058440F551F59F05F3F71F0CB
:101D30004795880F97FB991F61F09F3F79F0879532
:101D40000895121613061406551FF2CF4695F1DFBB
:101D500008C0161617061806991FF1CF869571054B
:101D6000610508940895E894BB2766277727CB017F
:101D700097F908950E94450E08F48FEF08950E9488
:101D8000D20E0C94800E0E94720E38F00E94790ED2
:101D900020F0952311F00C94690E0C946F0E112411
:101DA0000C94B40E0E94910E70F3959FC1F3950FA1
:101DB00050E0551F629FF001729FBB27F00DB11DCF
:101DC000639FAA27F00DB11DAA1F649F6627B00D5F
:101DD000A11D661F829F2227B00DA11D621F739F48
:101DE000B00DA11D621F839FA00D611D221F749F56
:101DF0003327A00D611D231F849F600D211D822F9D
:101E0000762F6A2F11249F5750409AF0F1F08823C3
:101E10004AF0EE0FFF1FBB1F661F771F881F9150F0
:101E20005040A9F79E3F510580F00C94690E0C9428
:101E3000B40E5F3FE4F3983ED4F3869577956795AB
:101E4000B795F795E7959F5FC1F7FE2B880F911D1A
:101E50009695879597F908950E94450E880B990BE2
:101E60000895FC018191861721F08823D9F79927DD
:101E700008953197CF010895FB01DC018D91019008
:101E800080190110D9F3990B0895FB01DC01019031
:101E90000D920020E1F70895FB01DC014150504014
:101EA00048F001900D920020C9F701C01D924150E9
:101EB0005040E0F7089510E0C2E6D0E004C0FE0113
:101EC0000E94CD0C2196C336D107C9F7F894FFCFF5
:101ED0000000000039019900C6008601F700D50016
:101EE000E90000000000BF0199005202BE011B0280
:101EF0003102A6016E616E00696E66006F76660043
:101F0000504E41424C00524D4300474741004C6106
:101F10007469747564653A20000D0A004C6F6E6731
:0C1F200069747564653A20002D2D2D00B9
:00000001FF
