:100000000C9463000C948B000C948B000C940806E9
:100010000C9408060C9408060C948B000C948B002E
:100020000C948B000C948B000C948B000C948B0024
:100030000C948B000C948B000C948B000C948B0014
:100040000C9447040C948B000C94B7040C9491040A
:100050000C948B000C948B000C948B000C948B00F4
:100060000C94E9040C948B000000000800020100CD
:100070000003040700000000000000000000000072
:1000800023002600290000000000240027002A0089
:1000900000000000250028002B00040404040404D0
:1000A0000404020202020202030303030303010227
:1000B00004081020408001020408102001020408F6
:1000C000102080064E0A11241FBECFEFD8E0DEBFFD
:1000D000CDBF23E0A4E5B1E001C01D92AB32B20771
:1000E000E1F711E0A0E0B1E0ECE4F9E102C0059035
:1000F0000D92A435B107D9F710E0C2E6D0E004C0F4
:100100002197FE010E94A10AC136D107C9F70E94BA
:100110007B070C94990C0C94000090E0FC01E859CA
:10012000FF4F2491FC01E255FF4F3491FC01E6564C
:10013000FF4FE491EE23C9F0222339F0233001F17F
:10014000A8F4213019F1223029F1F0E0EE0FFF1F61
:10015000E057FF4FA591B4918FB7F894EC916111DE
:1001600026C030953E233C938FBF08952730A9F0D9
:100170002830C9F0243049F7809180008F7D03C07A
:10018000809180008F7780938000DFCF84B58F7758
:1001900084BDDBCF84B58F7DFBCF8091B0008F779E
:1001A0008093B000D2CF8091B0008F7DF9CF3E2BED
:1001B000DACF3FB7F8948091570290915802A091FE
:1001C0005902B0915A0226B5A89B05C02F3F19F0DD
:1001D0000196A11DB11D3FBFBA2FA92F982F8827C7
:1001E000BC01CD01620F711D811D911D42E0660FA2
:1001F000771F881F991F4A95D1F70895089508958C
:10020000AF92BF92CF92DF92EF92FF920F931F9324
:10021000CF93DF936C017B018B01040F151FEB0162
:100220005E01AE18BF08C017D10759F06991D60119
:10023000ED91FC910190F081E02DC6010995892B8B
:1002400079F7C501DF91CF911F910F91FF90EF904A
:10025000DF90CF90BF90AF900895FC01538D448DF7
:10026000252F30E0842F90E0821B930B541710F061
:10027000CF96089501970895FC01918D828D98176E
:1002800061F0A28DAE0FBF2FB11D5D968C91928D46
:100290009F5F9F73928F90E008958FEF9FEF089577
:1002A000FC01918D828D981731F0828DE80FF11D40
:1002B000858D90E008958FEF9FEF0895FC01918D5B
:1002C000228D892F90E0805C9F4F821B91098F7354
:1002D000992708958FE592E00E945E0121E0892B25
:1002E00009F420E0822F089580E090E0892B29F026
:1002F0000E946A0181110C9400000895FC01A48DF4
:10030000A80FB92FB11DA35ABF4F2C91848D90E037
:1003100001968F739927848FA689B7892C93A0891A
:10032000B1898C91837080648C93938D848D9813A4
:1003300006C00288F389E02D80818F7D8083089537
:10034000EF92FF920F931F93CF93DF93EC0181E025
:10035000888F9B8D8C8D98131AC0E889F9898081CC
:1003600085FF15C09FB7F894EE89FF896083E889FF
:10037000F98980818370806480839FBF81E090E0F1
:10038000DF91CF911F910F91FF90EF900895F62E7E
:100390000B8D10E00F5F1F4F0F731127E02E8C8D18
:1003A0008E110CC00FB607FCFACFE889F98980815D
:1003B00085FFF5CFCE010E947E01F1CFEB8DEC0FD2
:1003C000FD2FF11DE35AFF4FF0829FB7F8940B8F7A
:1003D000EA89FB8980818062CFCFCF93DF93EC01E4
:1003E000888D8823B9F0AA89BB89E889F9898C911D
:1003F00085FD03C0808186FD0DC00FB607FCF7CFD9
:100400008C9185FFF2CF808185FFEDCFCE010E94D8
:100410007E01E9CFDF91CF9108952091D501260F7C
:100420003327331F21323105ECF420912802FC01DF
:1004300090E080E0243069F082E00895A091D50139
:100440002191AC014B545E4FA40FB52FB11D2C93DD
:100450000196861798F38091D501680F6093D501B6
:1004600080E0089581E008951092280281E0809351
:1004700027021092020261E082E10E948D0061E099
:1004800083E10E948D00E9EBF0E080818E7F808324
:1004900080818D7F808388E48093B80085E4809399
:1004A000BC000895CF93DF9391E09093B40188232B
:1004B000B9F0C091B800D091BA008091BC008A7B9D
:1004C0008093BC0060E082E10E948D0060E083E1E7
:1004D0000E948D000E943402D093BA00C093B800ED
:1004E000DF91CF9108950895E091FD018091FC0185
:1004F000E81730F4F0E0EC56FE4F808190E008956C
:100500008FEF9FEF08959091FD018091FC012FEFF7
:100510003FEF981748F4E92FF0E0EC56FE4F2081AA
:1005200030E09F5F9093FD01C90108958091FC0127
:100530009091FD01891B990B0895CF92DF92EF9264
:10054000FF920F931F93CF93DF937C01CB018A011E
:1005500020912E02222389F0EB016B01C40ED51EDF
:10056000CC15DD0569F06991D701ED91FC91019001
:10057000F081E02DC7010995F3CF642F0E940D0291
:10058000C801DF91CF911F910F91FF90EF90DF9005
:10059000CF900895CF93DF931F92CDB7DEB76983D5
:1005A00020912E022223F9F020915102203258F09E
:1005B00021E030E0FC013383228390E080E00F9063
:1005C000DF91CF91089580912F02E82FF0E0E05D58
:1005D000FD4F998190838F5F80932F02809351020A
:1005E00081E090E0ECCF61E0CE0101960E940D0227
:1005F000F7CF20910002309101022817390771F4DA
:100600009091FE018091FF01981741F0E091FE0169
:10061000F0E0EC5AFE4F808190E008958FEF9FEF5D
:100620000895EF92FF920F931F93CF93DF93DC0116
:100630005C96ED90FC905D97E114F10479F481E013
:1006400090E013969C938E93129790E080E0DF9158
:10065000CF911F910F91FF90EF9008955196ED91DA
:10066000FC91529750968C915097982F90950FB778
:100670005E962C915E97122F127021FD6095F89472
:100680002081112319F1282B2083E7012197F1F70D
:1006900028E0462F50E0308160FF1AC0382B3083AD
:1006A000E7012197F1F7BA0175956795215089F710
:1006B000112381F08081892380830FBF5C968D9107
:1006C0009C910197F1F781E090E0C1CF2923DCCF25
:1006D0003923E5CF9081892BEFCF20910002309113
:1006E00001022817390761F48091FF012091FE0172
:1006F00090E0805C9F4F821B91098F73992708952A
:1007000090E080E0089520910002309101022817C6
:100710003907B9F49091FE018091FF01981789F093
:10072000E091FE01F0E0EC5AFE4F80812091FE0145
:1007300030E02F5F3F4F2F7333272093FE0190E06F
:1007400008958FEF9FEF08952FB7F89480915B0283
:1007500090915C02A0915D02B0915E022FBF8093E8
:10076000100390931103A0931203B093130388E036
:1007700093E00E94830397FF26C02FB7F8948091DF
:100780005B0290915C02A0915D02B0915E022FBF6E
:100790004091100350911103609112037091130363
:1007A000841B950BA60BB70B40910C0350910D03C6
:1007B00060910E0370910F0384179507A607B70782
:1007C000B0F28FEF9FEF089590E080E008950F93CF
:1007D0001F93CF93DF93EC0188819981009759F0A3
:1007E0002A813B812617370730F081E0DF91CF91D6
:1007F0001F910F9108958B016F5F7F4F0E94CC0B6B
:10080000009759F0998388831B830A832C813D814B
:10081000232B59F7FC011082E8CF80E0E7CF85ED6C
:100820008093BC0080912A0290912B02A0912C020F
:10083000B0912D020796A11DB11D23E0B695A79595
:10084000979587952A95D1F72091BC0024FD03C088
:1008500010922802089540912A0250912B02609133
:100860002C0270912D02452B462B472B69F30097E4
:10087000A105B10541F02AE22A95F1F700C00197E0
:10088000A109B109E1CF809129020C9452021F9273
:100890000F920FB60F9211242F933F938F939F9334
:1008A000AF93BF9380915B0290915C02A0915D0237
:1008B000B0915E023091560223E0230F2D3758F598
:1008C0000196A11DB11D2093560280935B02909367
:1008D0005C02A0935D02B0935E02809157029091FA
:1008E0005802A0915902B0915A020196A11DB11D62
:1008F0008093570290935802A0935902B0935A02E2
:10090000BF91AF919F918F913F912F910F900FBE0B
:100910000F901F90189526E8230F0296A11DB11D78
:10092000D2CF1F920F920FB60F9211242F933F93A5
:100930004F935F936F937F938F939F93AF93BF93E7
:10094000EF93FF938FE592E00E947E01FF91EF917C
:10095000BF91AF919F918F917F916F915F914F91D7
:100960003F912F910F900FBE0F901F9018951F92DF
:100970000F920FB60F9211242F938F939F93EF93A3
:10098000FF93E0916F02F09170028081E091750217
:10099000F091760282FD1BC09081809178028F5F7A
:1009A0008F7320917902821741F0E0917802F0E094
:1009B000E15AFD4F958F80937802FF91EF919F91BF
:1009C0008F912F910F900FBE0F901F9018958081DF
:1009D000F4CF1F920F920FB60F9211242F933F93D3
:1009E0004F935F936F937F938F939F93AF93BF9337
:1009F000EF93FF938091B900887F803609F44AC055
:100A0000F0F5883209F4A7C018F5803109F49BC0CD
:100A1000B8F4882309F4F9C0883009F494C0FF9130
:100A2000EF91BF91AF919F918F917F916F915F9166
:100A30004F913F912F910F900FBE0F901F901895DF
:100A4000883109F488C0803251F78093260214C09F
:100A5000803409F49DC040F48033B9F38833F9F64B
:100A60008093260285ECB0C0803509F485C08835B6
:100A700009F496C0883499F60E940F04D0CF8839C3
:100A800009F48CC038F5883729F050F4883611F015
:100A9000803729F683E0809328021092F70157C02F
:100AA000883809F47BC0803919F0803809F0B7CF55
:100AB0008091F701803208F071C0E091F70181E088
:100AC0008E0F8093F7018091BB00F0E0E952FE4F5A
:100AD00080833DC0803B39F0E0F4803A09F479C06E
:100AE000883A09F09CCF84E0809328021092D601C6
:100AF0001092D501E091FA01F091FB0109958091E6
:100B0000D50181110FC081E08093D5011092B5010C
:100B100009C0803C09F4A6CF883C09F4A3CF883BE8
:100B200009F07DCFE091D60181E08E0F8093D60150
:100B3000F0E0EB54FE4F80818093BB009091D60192
:100B40008091D50129C0809103028093BB0085EC80
:100B50008093BC0064CF9091250280912402981765
:100B600058F5E091250281E08E0F80932502F0E098
:100B7000EC5FFD4F8081E9CFE091250281E08E0F8F
:100B8000809325028091BB00F0E0EC5FFD4F8083F5
:100B900090912502809124029817C8F285E8D8CF59
:100BA000E091250281E08E0F809325028091BB00A9
:100BB000F0E0EC5FFD4F80838091270281115CCFD4
:100BC00081E08093020284EA8093BC0010922802A4
:100BD00026CF85EC8093BC00109228028091F7010B
:100BE000803230F4E091F701F0E0E952FE4F1082DC
:100BF0006091F70170E0E091F801F091F90187ED63
:100C000091E009951092F7010ACF1092260234CF95
:100C10001F920F920FB60F9211242F933F934F9371
:100C20005F936F937F938F939F93AF93BF93EF9354
:100C3000FF93E0910002F0910102309749F0A68500
:100C4000B7858585968D91FF14C09C918923A1F469
:100C5000FF91EF91BF91AF919F918F917F916F9194
:100C60005F914F913F912F910F900FBE0F901F906A
:100C700018959C91892361F7A389B4899C918589F2
:100C8000809589238C93868997890197F1F7608DE8
:100C9000718DA685B785558538E020E0CB01019799
:100CA000F1F7822F90E095958795282F4C91452359
:100CB00009F02068315091F7868D81FD2095809153
:100CC000FF0190E001968F7399273091FE0138174C
:100CD00099F0A091FF01B0E0AC5ABE4F2C938093E5
:100CE000FF01828D938D0197F1F7A389B4898C91CF
:100CF0009589892B8C93ACCF868D8160868FF1CFBF
:100D00000F931F93CF93DF931092620210926102B0
:100D100088EE93E0A0E0B0E08093630290936402D9
:100D2000A0936502B09366022AE031E0309360023E
:100D300020935F0225EC30E030936C0220936B022D
:100D400024EC30E030936E0220936D0220EC30E012
:100D50003093700220936F0221EC30E030937202E6
:100D60002093710222EC30E03093740220937302DE
:100D700026EC30E0309376022093750210927802D0
:100D80001092790210927A0210927B021092FF0266
:100D90001092FE028093000390930103A09302033C
:100DA000B09303032CE131E03093FD022093FC0269
:100DB00010920B0310920A0380930C0390930D037F
:100DC000A0930E03B0930F038EE291E0909309037A
:100DD0008093080310921F0310921E0310922103A8
:100DE00010922003109223031092220310922503E5
:100DF00010922403609126036E7F6D7F609326031B
:100E00006695617081E068278BE00E948D0049EB58
:100E100050E0FA01649185EA90E0FC0124912223DC
:100E200099F030E0220F331FF901EA57FF4FA591E7
:100E3000B491F901E057FF4F259134912FB7F89401
:100E40003C91632B6C932FBFFA014491409318039C
:100E5000FC018491E82FF0E0EE0FFF1FE057FF4FF9
:100E60008591949190931A038093190308EB10E0F5
:100E7000F8012491C4EAD0E0FE0184918823C9F0EE
:100E800090E0880F991FFC01EA57FF4FA591B4919C
:100E9000FC01E057FF4F459154913FB7F8949C9166
:100EA000822F809598239C93FA01908189238083D7
:100EB0003FBF8091260381FD04C061E08AE00E946B
:100EC0008D008AE080931403F801049100931503C8
:100ED000FE01C491EC2FF0E0EE0FFF1FE458FF4F2E
:100EE000859194919093170380931603DF91CF918E
:100EF0001F910F910895CF93DF93CDB7DEB7289759
:100F00000FB6F894DEBF0FBECDBF789484B5826073
:100F100084BD84B5816084BD85B5826085BD85B59D
:100F2000816085BD80916E00816080936E0010921B
:100F30008100809181008260809381008091810096
:100F40008160809381008091800081608093800027
:100F50008091B10084608093B1008091B000816085
:100F60008093B00080917A00846080937A008091B1
:100F70007A00826080937A0080917A008160809309
:100F80007A0080917A00806880937A001092C10084
:100F90001092FD011092FC0110922F02109251024A
:100FA0000E9434028EEF90E09093FB018093FA014F
:100FB0008FEF90E09093F9018093F801E0916F0238
:100FC000F091700282E08083E0916B02F0916C02FC
:100FD0001082E0916D02F0916E028FEC808310928E
:100FE0007702E0917302F091740286E08083E091D1
:100FF0007102F0917202808180618083E0917102C0
:10100000F0917202808188608083E0917102F0919A
:101010007202808180688083E0917102F091720297
:1010200080818F7D8083109223031092220310927F
:1010300021031092200310921F0310921E038DE9CA
:1010400091E09093250380932403909114039631AB
:1010500008F047C02DEB30E030931F0320931E03B0
:101060002BE931E030932103209320032CE231E07F
:1010700030932303209322032091680084E098306A
:1010800048F031E09E3008F430E081E001C0880F84
:101090003A95EAF7822B809368002DE630E098308D
:1010A00050F02BE630E09E3030F02CE630E0963108
:1010B00010F030E020E030931C0320931B03292F15
:1010C00030E0983008F0C4C081E001C0880F9A95E4
:1010D000EAF780931D0380912403909125030197E3
:1010E000F1F78091220390912303892B49F1E0913C
:1010F0000002F091010203E0E830F00709F13097B7
:1011000039F0A389B4899C918589809589238C9332
:10111000809126038E7F809326031092FF01109208
:10112000FE0188E093E09093010280930002E09139
:101130001B03F0911C03808190911D03892B8083F8
:10114000BB24B39495EE392E20E0822E20E0922E1F
:1011500032E0A32E22242A94B0922E0218E010939B
:10116000500210922F02109251026AE58CEF92E029
:101170000E94CA0210915102113208F09BC00E94D5
:10118000D9006B017C018091280281116EC0A09270
:101190002802B09227022092260210922502109374
:1011A0002402A0E3B2E0E4E0F2E01813F8C01092E9
:1011B0000302809103028061809303028091020206
:1011C000813009F0F0C0109202020E94D9006B0138
:1011D0007C01809103028093BB0080912A02909150
:1011E0002B02A0912C02B0912D02892B8A2B8B2BE4
:1011F000A1F00E94D90000912A0210912B022091A7
:101200002C0230912D026C197D098E099F09061759
:1012100017072807390708F449C08091BC0083FDEF
:10122000D8CF25EC2093BC000E94D9006B017C0133
:1012300080912802823009F4B9C0809126028F3F44
:10124000C9F1809126028032A9F18091260232C034
:101250009E3040F42850310981E001C0880F2A9562
:10126000EAF737CF2E503109F7CF80912A029091BB
:101270002B02A0912C02B0912D02892B8A2B8B2B53
:1012800009F481CF0E94D90040902A0250902B028D
:1012900060902C0270902D026C197D098E099F09B7
:1012A000461657066806790608F06DCF8091290228
:1012B0000E94520210922F021092510210922E029E
:1012C0002FB7F89480915B0290915C02A0915D022F
:1012D000B0915E022FBF4091520250915302609133
:1012E0005402709155028C019D01041B150B260BB5
:1012F000370BB901A801443651056105710508F4A1
:101300009DC08093520290935302A0935402B093D5
:10131000550288E093E00E946D03892B09F48EC08A
:101320001A8219821C821B821E821D8270E060E07C
:10133000CE0101960E94E70329813A81811158C0AC
:101340002115310519F0C9010E94430B1A82198237
:101350001E821D821C821B820E94A40397FD50C026
:101360008A30910509F44CC08F8318860D811E8147
:101370000F5F1F4FB801CE0101960E94E70388233B
:1013800059F329813A818D819E81BE01695F7F4F2A
:10139000820F931F0E94920C1E830D83DDCF9D91BF
:1013A00091938F5F02CF3092BC003ECF80912A0292
:1013B00090912B02A0912C02B0912D02892B8A2BA7
:1013C0008B2B09F435CF0E94D90000912A0210918D
:1013D0002B0220912C0230912D026C197D098E096F
:1013E0009F09061717072807390708F021CF5ECF96
:1013F0001E821D8263E571E0C9010E94920CACCF90
:1014000044E150E06CE371E08FE592E00E9400015E
:101410004D815E8169817A818FE592E00E940001B1
:1014200042E050E061E571E08FE592E00E9400014A
:1014300089819A81009711F00E94430B0E94D90084
:101440002B013C018AE0C82ED12CE12CF12C0E940A
:10145000D9006419750986099709683E73408105AA
:101460009105A8F311E0C11AD108E108F10828EEAE
:10147000420E23E0521E611C711CC114D104E10410
:10148000F10429F78114910409F466CE0E946A01DF
:10149000882309F461CE0E9400005ECE8EE291E0C6
:1014A00090930903809308038091000290910102B8
:1014B0008850934071F4E0911B03F0911C039081DC
:1014C00080911D03809589238083109201021092E0
:1014D000000208952F923F924F925F926F927F92F7
:1014E0008F929F92AF92BF92CF92DF92EF92FF9234
:1014F0000F931F93CF93DF93CDB7DEB7CA1BDB0BE0
:101500000FB6F894DEBF0FBECDBF09942A88398884
:1015100048885F846E847D848C849B84AA84B9848B
:10152000C884DF80EE80FD800C811B81AA81B98197
:10153000CE0FD11D0FB6F894DEBF0FBECDBFED01AB
:101540000895EE0FFF1F0590F491E02D09940F937D
:101550001F93CF93DF938230910510F482E090E0E7
:10156000E0912903F0912A0330E020E0B0E0A0E010
:10157000309799F42115310509F44AC0281B390B1D
:1015800024303105D8F58A819B816115710589F177
:10159000FB0193838283FE0111C04081518102814E
:1015A000138148175907E0F04817590799F4109725
:1015B00061F012960C93129713961C933296CF01FA
:1015C000DF91CF911F910F910895009329031093FC
:1015D0002A03F4CF2115310551F04217530738F093
:1015E000A901DB019A01BD01DF01F801C1CFEF01C3
:1015F000F9CF90932A0380932903CDCFFE01E20F08
:10160000F31F819391932250310939832883D7CFD7
:101610002091270330912803232B41F420910201CC
:101620003091030130932803209327032091000178
:10163000309101012115310541F42DB73EB740919C
:10164000040150910501241B350BE0912703F09113
:101650002803E217F307A0F42E1B3F0B28173907C6
:1016600078F0AC014E5F5F4F2417350748F04E0FFE
:101670005F1F5093280340932703819391939FCF3B
:10168000F0E0E0E09CCFCF93DF930097E9F0FC011E
:10169000329713821282A0912903B0912A03ED019F
:1016A00030E020E01097A1F420813181820F931F58
:1016B00020912703309128032817390709F061C0CA
:1016C000F0932803E0932703DF91CF910895EA0177
:1016D000CE17DF07E8F54A815B819E014115510570
:1016E000B1F7E901FB83EA8349915991C40FD51FF2
:1016F000EC17FD0761F4808191810296840F951F9C
:10170000E90199838883828193819B838A83F0E0B6
:10171000E0E012968D919C9113970097B9F52D9169
:101720003C911197CD010296820F931F20912703C0
:10173000309128032817390739F6309751F5109260
:101740002A0310922903B0932803A0932703BCCF48
:10175000D383C28340815181840F951FC817D90755
:1017600061F44E5F5F4F88819981480F591F518303
:1017700040838A819B81938382832115310509F0FF
:10178000B0CFF0932A03E09329039ECFFD01DC0143
:10179000C0CF13821282D7CFB0E0A0E0E2EDFBE031
:1017A0000C946C0A8C01009751F4CB010E94A70A9B
:1017B0008C01C801CDB7DEB7E0E10C94880AFC01CA
:1017C000E60FF71F9C0122503109E217F30708F4D6
:1017D0009DC0D901CD91DC911197C617D70798F01C
:1017E000C530D10530F3CE0104978617970708F36B
:1017F000C61BD70B2297C193D1936D937C93CF01D6
:101800000E94430BD6CF5B01AC1ABD0A4C018C0E73
:101810009D1EA0912903B0912A03512C412CF12C3B
:10182000E12C109731F580912703909128038815BA
:10183000990509F05CC04616570608F058C080911B
:10184000000190910101009741F48DB79EB740913E
:10185000040150910501841B950BE817F90708F066
:1018600055C0F0932803E0932703F9017183608347
:10187000A0CF8D919C91119712966C901297139610
:101880007C901397A815B90559F56C0142E0C40E78
:10189000D11CCA14DB0420F1AC014A195B09DA013E
:1018A0001296159780F06282738251834083D9012A
:1018B0006D937C93E114F10471F0D7011396FC93BE
:1018C000EE93129776CF22968C0F9D1FF90191838C
:1018D0008083F301EFCFF0932A03E093290369CFCC
:1018E0004816590608F42C017D01D3019ACFCB018B
:1018F0000E94A70A7C01009749F0AE01B8010E943E
:10190000890CC8010E94430B870153CF10E000E00F
:1019100050CFFB01DC0102C001900D9241505040BC
:10192000D8F70895FB01DC0101900D920020E1F74A
:10193000089510E0C2E6D0E004C0FE010E94A10AB2
:0C1940002196C336D107C9F7F894FFCFF9
:10194C0000002B03800000000000A00100012D010D
:10195C00ED015E013C01500100000000CA029D0235
:10196C00E403730296028302740200000000110368
:10197C000001E40373026D038303F902526563658E
:10198C006269646F20646F2073656E736F723A20A6
:04199C00000D0A0030
:00000001FF
