:100000000C945D000C9485000C9485000C94850084
:100010000C9485000C9485000C9485000C9485004C
:100020000C9485000C9485000C9485000C94AF040E
:100030000C9485000C9485000C9485000C9485002C
:100040000C94EE020C9485000C945E030C9438031F
:100050000C9485000C9485000C9485000C9485000C
:100060000C9490030C9485000000000024002700ED
:100070002A0000000000250028002B0004040404CE
:100080000404040402020202020203030303030342
:10009000010204081020408001020408102001021F
:1000A00004081020000000080002010000030407FB
:1000B00000000000000000006B0511241FBECFEF00
:1000C000D8E0DEBFCDBF11E0A0E0B1E0E2E2F2E1B6
:1000D00002C005900D92A832B107D9F722E0A8E23C
:1000E000B1E001C01D92AD39B207E1F710E0CDE5F6
:1000F000D0E004C02197FE010E940909CC35D10748
:10010000C9F70E94DA050C940F090C94000090E0E6
:10011000FC01EC55FF4F2491FC01E057FF4F349157
:10012000FC01E458FF4FE491EE23C9F0222339F09B
:10013000233001F1A8F4213019F1223029F1F0E047
:10014000EE0FFF1FEE58FF4FA591B4918FB7F894B3
:10015000EC91611126C030953E233C938FBF0895EA
:100160002730A9F02830C9F0243049F78091800069
:100170008F7D03C0809180008F7780938000DFCFD8
:1001800084B58F7784BDDBCF84B58F7DFBCF809125
:10019000B0008F778093B000D2CF8091B0008F7D78
:1001A000F9CF3E2BDACF3FB7F8948091C8019091F8
:1001B000C901A091CA01B091CB0126B5A89B05C089
:1001C0002F3F19F00196A11DB11D3FBFBA2FA92FD6
:1001D000982F8827BC01CD01620F711D811D911DD3
:1001E00042E0660F771F881F991F4A95D1F708953F
:1001F0008091C0019091BF01891B990B08950895CA
:100200000895AF92BF92CF92DF92EF92FF920F9339
:100210001F93CF93DF936C017B018B01040F151F9C
:10022000EB015E01AE18BF08C017D10759F0699104
:10023000D601ED91FC910190F081E02DC601099568
:10024000892B79F7C501DF91CF911F910F91FF9015
:10025000EF90DF90CF90BF90AF900895FC01538D49
:10026000448D252F30E0842F90E0821B930B541790
:1002700010F0CF96089501970895FC01918D828D1D
:10028000981761F0A28DAE0FBF2FB11D5D968C91B6
:10029000928D9F5F9F73928F90E008958FEF9FEFF5
:1002A0000895FC01918D828D981731F0828DE80FB1
:1002B000F11D858D90E008958FEF9FEF0895FC016B
:1002C000918D228D892F90E0805C9F4F821B910938
:1002D0008F73992708958CEC91E00E945F0121E0D3
:1002E000892B09F420E0822F089580E090E0892B8B
:1002F00029F00E946B0181110C9400000895FC010B
:10030000A48DA80FB92FB11DA35ABF4F2C91848D76
:1003100090E001968F739927848FA689B7892C93D3
:10032000A089B1898C91837080648C93938D848D26
:10033000981306C00288F389E02D80818F7D808329
:100340000895EF92FF920F931F93CF93DF93EC01E9
:1003500081E0888F9B8D8C8D98131AC0E889F9896C
:10036000808185FF15C09FB7F894EE89FF8960836F
:10037000E889F98980818370806480839FBF81E0F0
:1003800090E0DF91CF911F910F91FF90EF90089532
:10039000F62E0B8D10E00F5F1F4F0F731127E02E0D
:1003A0008C8D8E110CC00FB607FCFACFE889F98945
:1003B000808185FFF5CFCE010E947F01F1CFEB8DCB
:1003C000EC0FFD2FF11DE35AFF4FF0829FB7F89419
:1003D0000B8FEA89FB8980818062CFCFCF93DF9337
:1003E000EC01888D8823B9F0AA89BB89E889F9894D
:1003F0008C9185FD03C0808186FD0DC00FB607FC82
:10040000F7CF8C9185FFF2CF808185FFEDCFCE01B4
:100410000E947F01E9CFDF91CF91089520914A0199
:10042000260F3327331F21323105ECF42091990137
:10043000FC0190E080E0243069F082E00895A09112
:100440004A012191AC01465D5E4FA40FB52FB11D4D
:100450002C930196861798F380914A01680F609358
:100460004A0180E0089581E008951092990181E0A9
:10047000809398011092930161E082E10E948700CD
:1004800061E083E10E948700E9EBF0E080818E7FEC
:10049000808380818D7F808388E48093B80085E4A9
:1004A0008093BC000895CF93DF9391E0909329014E
:1004B0008823B9F0C091B800D091BA008091BC00F7
:1004C0008A7B8093BC0060E082E10E94870060E04C
:1004D00083E10E9487000E943502D093BA00C09346
:1004E000B800DF91CF9108950895E091BF01809108
:1004F000C001E81730F4F0E0E156FE4F808190E053
:1005000008958FEF9FEF08959091BF018091C001F2
:100510002FEF3FEF981748F4E92FF0E0E156FE4F38
:10052000208130E09F5F9093BF01C9010895CF9370
:10053000DF93CB01EA01642F0E940E02CE01DF910E
:10054000CF910895CF93DF931F92CDB7DEB7698324
:1005500061E0CE0101960E940E0281E090E00F90D2
:10056000DF91CF91089590E080E0089585ED80932C
:10057000BC0080919B0190919C01A0919D01B09144
:100580009E010796A11DB11D23E0B695A7959795ED
:1005900087952A95D1F72091BC0024FD03C01092C5
:1005A0009901089540919B0150919C0160919D019A
:1005B00070919E01452B462B472B69F30097A105AF
:1005C000B10541F02AE22A95F1F700C00197A1098F
:1005D000B109E1CF80919A010C9453021F920F92BE
:1005E0000FB60F9211242F933F938F939F93AF9346
:1005F000BF938091C4019091C501A091C601B091B3
:10060000C7013091C30123E0230F2D3758F5019620
:10061000A11DB11D2093C3018093C4019093C50116
:10062000A093C601B093C7018091C8019091C90100
:10063000A091CA01B091CB010196A11DB11D80937B
:10064000C8019093C901A093CA01B093CB01BF9197
:10065000AF919F918F913F912F910F900FBE0F906F
:100660001F90189526E8230F0296A11DB11DD2CF29
:100670001F920F920FB60F9211242F933F934F9317
:100680005F936F937F938F939F93AF93BF93EF93FA
:10069000FF938CEC91E00E947F01FF91EF91BF915D
:1006A000AF919F918F917F916F915F914F913F910A
:1006B0002F910F900FBE0F901F9018951F920F92C1
:1006C0000FB60F9211242F938F939F93EF93FF9365
:1006D000E091DC01F091DD018081E091E201F09197
:1006E000E30182FD1BC090818091E5018F5F8F73D4
:1006F0002091E601821741F0E091E501F0E0E4533A
:10070000FE4F958F8093E501FF91EF919F918F911F
:100710002F910F900FBE0F901F9018958081F4CFEE
:100720001F920F920FB60F9211242F933F934F9366
:100730005F936F937F938F939F93AF93BF93EF9349
:10074000FF938091B900887F803609F44AC0F0F5A4
:10075000883209F4A7C018F5803109F49BC0B8F4B9
:10076000882309F4F9C0883009F494C0FF91EF910F
:10077000BF91AF919F918F917F916F915F914F91B9
:100780003F912F910F900FBE0F901F9018958831B9
:1007900009F488C0803251F78093970114C08034E7
:1007A00009F49DC040F48033B9F38833F9F680939F
:1007B000970185ECB0C0803509F485C0883509F40F
:1007C00096C0883499F60E94B602D0CF883909F4D1
:1007D0008CC038F5883729F050F4883611F080370E
:1007E00029F683E08093990110926C0157C08838F4
:1007F00009F47BC0803919F0803809F0B7CF8091B7
:100800006C01803208F071C0E0916C0181E08E0FC4
:1008100080936C018091BB00F0E0E45BFE4F80832D
:100820003DC0803B39F0E0F4803A09F479C0883A61
:1008300009F09CCF84E08093990110924B011092B3
:100840004A01E0916F01F0917001099580914A0190
:1008500081110FC081E080934A0110922A0109C0E2
:10086000803C09F4A6CF883C09F4A3CF883B09F06B
:100870007DCFE0914B0181E08E0F80934B01F0E042
:10088000E65DFE4F80818093BB0090914B0180918B
:100890004A0129C0809194018093BB0085EC80932C
:1008A000BC0064CF9091960180919501981758F5FE
:1008B000E091960181E08E0F80939601F0E0ED5873
:1008C000FE4F8081E9CFE091960181E08E0F809309
:1008D00096018091BB00F0E0ED58FE4F808390912F
:1008E0009601809195019817C8F285E8D8CFE091DC
:1008F000960181E08E0F809396018091BB00F0E01D
:10090000ED58FE4F80838091980181115CCF81E08A
:100910008093930184EA8093BC001092990126CFC2
:1009200085EC8093BC001092990180916C0180321B
:1009300030F4E0916C01F0E0E45BFE4F10826091D6
:100940006C0170E0E0916D01F0916E018CE491E03A
:10095000099510926C010ACF1092970134CF1F9223
:100960000F920FB60F9211242F933F934F935F93E3
:100970006F937F938F939F93AF93BF93CF93DF93A7
:10098000EF93FF9380912801C0919902D0E087FFF7
:1009900024C01092850010928400809128018F5FFE
:1009A0008093280180912801082E000C990B8C1748
:1009B0009D0724F4809128018C30C4F1809184003B
:1009C00090918500049680349C4908F47AC0809107
:1009D000840090918500049676C080912801082EAD
:1009E000000C990B8C179D07C4F6E09128018E2FFF
:1009F000EE0F990BFC01EE0FFF1FE80FF91FEB58EC
:100A0000FD4F808186FFC9CFE09128018E2FEE0F28
:100A1000990BFC01EE0FFF1FE80FF91FEB58FD4F7C
:100A2000808160E08F730E948700B7CF209184009F
:100A300030918500E09128018E2FEE0F990BFC017B
:100A4000EE0FFF1FE80FF91FEB58FD4F81819281D8
:100A5000820F931F9093890080938800E091280172
:100A60008E2FEE0F990BFC01EE0FFF1FE80FF91F01
:100A7000EB58FD4F808186FF11C0E09128018E2F39
:100A8000EE0F990BFC01EE0FFF1FE80FF91FEB585B
:100A9000FD4F808161E08F730E948700FF91EF918D
:100AA000DF91CF91BF91AF919F918F917F916F9186
:100AB0005F914F913F912F910F900FBE0F901F901C
:100AC000189580E49CE990938900809388008FEFCB
:100AD00080932801E3CF1092CF011092CE0188EECF
:100AE00093E0A0E0B0E08093D0019093D101A09377
:100AF000D201B093D30124E031E03093CD012093B3
:100B0000CC0125EC30E03093D9012093D80124ECBE
:100B100030E03093DB012093DA0120EC30E03093B9
:100B2000DD012093DC0121EC30E03093DF012093E4
:100B3000DE0122EC30E03093E1012093E00126EC6D
:100B400030E03093E3012093E2011092E50110922E
:100B5000E6011092E7011092E80110926C021092E7
:100B60006B0280936D0290936E02A0936F02B0931C
:100B7000700286E191E090936A028093690280910D
:100B800099028C3098F491E0980F90939902809399
:100B90009A0290E0FC01EE0FFF1FE80FF91FEB58DF
:100BA000FD4F88EB9BE09283818308958FEF8093C4
:100BB0009A020895CF93DF93CDB7DEB7A1970FB612
:100BC000F894DEBF0FBECDBF789484B5826084BD3B
:100BD00084B5816084BD85B5826085BD85B5816041
:100BE00085BD80916E00816080936E0010928100BF
:100BF000809181008260809381008091810081607A
:100C0000809381008091800081608093800080913A
:100C1000B10084608093B1008091B00081608093C6
:100C2000B00080917A00846080937A0080917A008D
:100C3000826080937A0080917A00816080937A004C
:100C400080917A00806880937A001092C10010929F
:100C5000BF011092C00110927201109271010E94A6
:100C600035028FEF90E09093700180936F0180E0E8
:100C700091E090936E0180936D0180919A028C3087
:100C800008F068C0E9E9F0E02491E5E8F0E084913B
:100C9000882399F090E0880F991FFC01E859FF4FD5
:100CA000A591B491FC01EE58FF4F859194918FB7B7
:100CB000F894EC91E22BEC938FBF80919A02282F4D
:100CC00030E0F901EE0FFF1FE20FF31FEB58FD4F6D
:100CD0009081907C9960908310929B0210929C026C
:100CE0002CE0622F0E94FD08829FB001112430E0A9
:100CF00020E0AB01420F531FFA01EE0FFF1FE40F7C
:100D0000F51FEB58FD4F908196FD16C02F5F3F4FAA
:100D10002C30310571F781110FC01092800082E0F4
:100D2000809381001092850010928400B19A809186
:100D30006F00826080936F00E0919A028E2F90E0A6
:100D4000FC01EE0FFF1FE80FF91FEB58FD4F8081EC
:100D500080648083E091DC01F091DD0182E080839A
:100D6000E091D801F091D9011082E091DA01F0917F
:100D7000DB018FEC80831092E401E091E001F091BF
:100D8000E10186E08083E091DE01F091DF01808166
:100D900080618083E091DE01F091DF0180818860D5
:100DA0008083E091DE01F091DF01808180688083A3
:100DB000E091DE01F091DF0180818F7D80837AE018
:100DC000472E512C612C712CE8E82E2E312C0E94DC
:100DD000D3004B015C0180919901811163C021E036
:100DE00020939901209398018FEF8093970110929F
:100DF0009601109295012093940180919401806155
:100E00008093940180919301813009F04AC110923E
:100E100093010E94D3004B015C0180919401809367
:100E2000BB0080919B0190919C01A0919D01B0918C
:100E30009E01892B8A2B8B2BA1F00E94D30000915D
:100E40009B0110919C0120919D0130919E01681998
:100E500079098A099B09061717072807390708F433
:100E600042C08091BC0083FDD8CF95EC9093BC002C
:100E70000E94D3004B015C0180919901813009F4FB
:100E800014C180919601811132C180919601A3E72E
:100E9000B1E0EFE9F1E090E0981751F12D91219345
:100EA0009F5FFACF80919B0190919C01A0919D0141
:100EB000B0919E01892B8A2B8B2B09F48CCF0E9439
:100EC000D30000919B0110919C0120919D013091D4
:100ED0009E01681979098A099B09061717072807CF
:100EE000390708F078CF80919A010E94530280E080
:100EF0001092BF018093C001882309F4A1C089E644
:100F000092E00E94840297FFF4C01092C2011092F6
:100F1000C101B0E0A0E0B0909A029BE09B1508F4FC
:100F20004FC080919C0248E5842E42E0942E881A9E
:100F3000910887FD9394880C991C880C991C8091CA
:100F40009B028101081B110987FD1395000F111FDA
:100F5000000F111F6801012E000CEE08FF0894011C
:100F6000092C000C440B550B2C193D094E095F0947
:100F70000E94C40824EB30E040E050E00E949A0850
:100F8000BA01A9014C0D5D1D6E1D7F1D4017510753
:100F90002CF08401481559050CF48A0102501109FE
:100FA000000F111F2FB7F8948B2D90E0FC01EE0F6E
:100FB000FF1FE80FF91FEB58FD4F128301832FBF6E
:100FC0008090C1019090C201092C000CAA08BB08B6
:100FD000B7FE9AC06DE28CEC91E00E94A10122273D
:100FE0003327A901281939094A095B0919A28E0179
:100FF0000F5D1F4FCA01B901A30192010E94CC08E5
:10100000605DF80162938F0121153105410551059D
:1010100089F70115110561F001900020E9F731977A
:10102000AF01401B510BB8018CEC91E00E94010113
:1010300042E050E064E271E08CEC91E00E9401013A
:101040000E94D3004B015C0184E6C82ED12CE12C18
:10105000F12C0E94D300681979098A099B09683E1E
:10106000734081059105A8F3F1E0CF1AD108E1089A
:10107000F10828EE820E23E0921EA11CB11CC114BF
:10108000D104E104F10429F780E090E0892B09F410
:101090009ECE0E946B01882309F499CE0E94000025
:1010A00096CEE5EEE093BC00E3CE80919B0190915B
:1010B0009C01A0919D01B0919E01892B8A2B8B2BC5
:1010C00009F4DACE0E94D30000919B0110919C019B
:1010D00020919D0130919E01681979098A099B0927
:1010E000061717072807390708F0C6CEFCCE81E09F
:1010F000CECEDC01853B910514F0A4EBB0E0B093BB
:10110000C201A093C10107CFA501940119A28E01CC
:101110000F5D1F4FCA01B901A30192010E94CC08C3
:10112000605DF80162938F0121153105410551057C
:1011300089F76FCF052E97FB1EF400940E94B1082B
:1011400057FD07D00E94CC0807FC03D04EF40C9446
:10115000B10850954095309521953F4F4F4F5F4FC7
:10116000089590958095709561957F4F8F4F9F4F13
:1011700008950E94EE08A59F900DB49F900DA49F26
:10118000800D911D11240895B7FF0C94B9080E9499
:10119000B908821B930B0895A1E21A2EAA1BBB1B50
:1011A000FD010DC0AA1FBB1FEE1FFF1FA217B30733
:1011B000E407F50720F0A21BB30BE40BF50B661F49
:1011C000771F881F991F1A9469F76095709580950D
:1011D00090959B01AC01BD01CF010895A29FB00184
:1011E000B39FC001A39F700D811D1124911DB29F5B
:1011F000700D811D1124911D0895991B79E004C083
:10120000991F961708F0961B881F7A95C9F7809545
:101210000895EE0FFF1F0590F491E02D0994F894C6
:02122000FFCFFE
:1012220000000000A10101012E01EE015F013D015C
:10123200510100000000A2029702B3027402F800FA
:08124200840275020D0A000090
:00000001FF
